:020000041000EA
:10000000002008205B0100101B010010C916001021
:100010001101001011010010110100101101001058
:100020001901001019010010190100101F01001022
:10003000110100101901001021010010230100100E
:100040001101001011010010110100101101001028
:100050001101001011010010110100101101001018
:100060001101001011010010110100101101001008
:1000700011010010110100101101001011010010F8
:1000800011010010110100101101001011010010E8
:1000900011010010110100101101001011010010D8
:1000A00011010010110100101101001011010010C8
:1000B00011010010110100101101001011010010B8
:1000C00011010010110100101101001011010010A8
:1000D0001101001011010010110100101101001098
:1000E0001101001011010010110100101101001088
:1000F0001101001011010010110100101101001078
:100100001101001011010010110100101101001067
:10011000EFF30580103800BE00BE00BE00BE00BE7A
:1001200000BE00BEF2EB8871600201108002011077
:100130009C01001090A31AE7D3DEFFFF42012110BB
:10014000FF010000241E0100793512AB00201E497A
:10015000086006C881F3088810474FF050400068D7
:1001600008B10020F3E70DA40ECC002902D000F066
:1001700012F8F9E71549164A002000E001C1914242
:10018000FCD114498847144988471449884700BE60
:10019000FDE701C901C29A42FBD3704780020110FA
:1001A00010010020EC1D00205C1F01100000082041
:1001B000000008205C1F011000100820001008201B
:1001C000000000007047000008ED00E0EC1D00207A
:1001D000A43200207DA10010E101001075A10010E3
:1001E00010B50AF029F94FF4967404E00A2007F0DC
:1001F000A3FE013C03D00AF047FC0028F6D096206D
:1002000007F09AFE00F0F2F828B100F0F1FA00F0E1
:10021000FDFA002010BD0220014900F0A9F8F4E722
:1002200070F400100FB400B583B004A951F8040BAA
:1002300001910AF0A9F903B05DF804EB04B070472E
:1002400008B507F081FF4FF47A7200230FF0DCF855
:1002500008BD00BF08F0B4BB08F0C4BB02280A46C2
:1002600004D0A0F10100B0FA80F04009034B04492A
:10027000002A08BF1A4600F07BB800BF18F700102C
:10028000A4F40010084B10B5002918BF0B46044613
:10029000064884B00068CDE90132039068460094B6
:1002A00000F0E0F804B010BD18F70010542300204F
:1002B000014B1860704700BF5423002010B504465E
:1002C000164821460DF0C6FBD8B1214614480DF062
:1002D000C1FBA8B1214613480DF0BCFBB0B12146CB
:1002E00011480DF0B7FB98B1214610480DF0B2FB54
:1002F00080B121460E480DF0ADFB68B1002010BD65
:1003000001200C4B03EBC003586810BD0220F8E736
:100310000320F6E70420F4E70520F2E7A8F4001034
:10032000B4F40010C0F40010CCF40010D4F40010A9
:10033000DCF40010A0FD00100EB430B582B005ACA6
:1003400054F8045B084909480AF080F92146284618
:1003500001940AF019F90A200AF0B6F802B0BDE8D3
:10036000304003B0704700BFF4F40010F8F4001000
:100370000EB400B5012882B014D0022810D10A4969
:100380000A480AF063F904A9039801910AF0FCF8FD
:100390000A200AF099F802B05DF804EB03B0704748
:1003A0000349EDE70349EBE700F50010F8F400100E
:1003B000F4F40010FCF40010014B0248C01A70471E
:1003C000A43200200000082000B58BB068460CF075
:1003D000E9FB044B0448C01A079BC01A0BB05DF838
:1003E00004FB00BFA43200200000082030B51649ED
:1003F0008DB00020FFF7A0FF02A80CF0D3FB134A3A
:10040000134B099C9B1A9D0A1B1B0020114A124981
:100410009B0A0095FFF790FF012000F0E5FF0446DE
:1004200050B101F0FBF802460C490020920AFFF798
:1004300083FF20460DB030BD02200949FFF798FF29
:1004400020460DB030BD00BF04F50010A4320020DE
:100450000000082018F5001020F5001058F50010D5
:1004600040F500102DE9F8430746E0B10568D5B125
:10047000806898B1DFF85890D9F80080B8F1000F83
:1004800021D00024114E01E0A04509D023012946C6
:10049000F0580DF0DFFA01340028F5D1BDE8F883FB
:1004A000B8F1600F02D10020BDE8F88308F1010324
:1004B00006EB0816C9F8003097E80F0086E80F0031
:1004C0000120BDE8F8830123004EF1E7D823002086
:1004D000D82900200F4B2DE9F041D3F80080B8F166
:1004E000000F15D0064600240B4D01E044450CD00A
:1004F00023013146E8580DF0ADFA05EB041701343D
:100500000028F3D13846BDE8F0810020BDE8F08135
:100510004046F8E7D8290020D8230020014B18686E
:10052000704700BFD8290020044B1B68834286BF58
:10053000034B03EB00100020704700BFD8290020B8
:10054000D823002008B506480AF000F8642007F018
:10055000F3FC00221146104607F0F4FEFEE700BF50
:1005600074F5001008B502480AF070F8002008BDC4
:1005700080F5001008B5034903480AF067F8002029
:1005800008BD00BF18F5001088F5001002282DE9FD
:10059000F04137DD0E460A220021B0680CF0F6FA71
:1005A000451EB5F5802F074626D208F009FA804689
:1005B00088B339461A480AF049F808F1FF3445442F
:1005C000184809F03BFF831CFAD004F8010FAC4235
:1005D000F6D13A464146706800F066FF0446404650
:1005E00008F000FA3B46726884B10F490F480AF0E0
:1005F0002DF80020BDE8F0810D4809F0A7FF01208B
:10060000BDE8F0810B4809F0A1FFF8E70A49074867
:100610000AF01CF8F3E7094809F098FFEFE700BF7C
:10062000DCF50010404B4C00F0F50010F8F5001020
:10063000C0F50010A8F5001008F60010CCF5001069
:1006400070B5FFF76BFF01460D4809F0FFFF00246E
:100650000C4D0D4E0EE02046FFF766FF0246D368B4
:100660001168002B0CBF2B4633460848526809F02E
:10067000EDFF0134FFF752FFA042ECD8002070BD1F
:1006800018F6001018F7001010F6001028F60010E9
:100690002DE9F0410128A0B06EDD02280C4645D1BD
:1006A000002500236A46606801A9009300F026FF38
:1006B000002842D0FFF788FE04A9064601A800F0F2
:1006C00065F90446009800F057FF002C3ED1DFF892
:1006D000DC8004980CAFFFF7EBFD2846099BC8F8B7
:1006E0000070984705462046C8F80040FFF7E0FD37
:1006F00007E02046FFF718FF049BC16801349942C8
:1007000031D0FFF70BFFA042F3D804A800F024F982
:10071000FFF75AFE864235D01B4B2A4639461B4806
:1007200009F094FF284620B0BDE8F0810A2200219C
:10073000A0680CF013FF0546B3E76168144809F0A0
:1007400085FF0125284620B0BDE8F081204600F055
:10075000F7F89DF84C30014693B10E4A13AB0E48A2
:1007600009F074FFEDE72A4639460C4809F06EFFA0
:10077000284620B0BDE8F081094809F0E7FEE0E72F
:10078000084AEBE7084BC8E748F6001094F600105B
:1007900068F6001038F600107CF60010BCF6001069
:1007A00050F6001018F700103CF60010342E002010
:1007B00008B500F0F1FE002008BD00BF10B5FFF73E
:1007C00003FE0446FFF7F8FD0246A10A920A064816
:1007D00009F03CFF00F022FF01460448890A09F0B5
:1007E00035FF002010BD00BFE8F6001004F7001030
:1007F00038B5054C04F1800520461034FFF732FE71
:10080000AC42F9D138BD00BFD0FD001070B53D48F5
:10081000B0B009F09BFE00253B4809F017FF00240B
:10082000002009F00BFE0D280EDC831CF8DB831C76
:100830000F2B0BD8DFE803F0440A0A0A0A0A0A0A57
:100840000A0A480A1E0A0A1E7F283DD0A0F120038A
:100850005E2B04F10106E3D87F2E44D9002009F075
:10086000EDFD0D28E1DD7F28F0D12848013C09F09D
:10087000EDFED5E70A206C4409F026FE84F84050CE
:100880009DF84030002BC7D0202B684632D1002481
:1008900010AB13F8012F202AFBD0C2B1013440F86D
:1008A000043B194613F8012F1AB1202AF9D11D7003
:1008B0008B1C1A786AB1102C0BD0202AE9D0EDE7F6
:1008C000022007F039FBABE7002CA9D0CDE7002CC4
:1008D000A2D00098FFF7FEFD034670B1694620469E
:1008E0009B68984797E76C4484F8400009F0ECFD5A
:1008F000344695E7002410ABD0E70099044809F08E
:10090000A5FE88E71CF700102CF7001034F7001044
:1009100038F7001038B5044608460D460BF0FEFFC8
:100920002F2828BF2F202946054604F13C002A46DF
:100930000EF032FD00232C4484F83C3038BD00BF5B
:100940000D289ABF024B53F820000248704700BFA1
:1009500050FE0010E8F80010A0B110B50446006881
:1009600010B1094B1B689847A06810B1064B1B6873
:1009700098470023C4E903332360A3606361636085
:10098000E36610BD704700BFB81700202DE9F04F97
:100990008B460446ADF6242D009070220021584667
:1009A0000EF012FDA368013B322B40F2E5800BAD47
:1009B00034232A46002166682068B047342840F076
:1009C000DB80B54B2A689A4240F0DC802E79012EFC
:1009D00040F0D8802B8A012B40F0DA806B8A282BDC
:1009E00040F0D8802B8E302B00F2D98003EB8303AC
:1009F0004FEAC308002B00F0CF80009B296A9B6858
:100A00003BB1994200F2B88001EB08029342C0F07A
:100A1000B3800098A8AB1A46D0E90007019343467B
:100A2000B847404540F0A8806B8E019A03EB8303E2
:100A300002EBC307D7F81480404607F0C1FF0290CD
:100A4000002800F0F483B8F1000F13D0009B39693F
:100A50009B683BB1994200F28C8008EB0102934203
:100A6000C0F0878000984346D0E90007029AB84753
:100A700040457ED1B5F83090B9F1000F00F0C58146
:100A8000019B00279846029C049303E001374F45E1
:100A900000F0BB81D8F80000804920440CF0DAFF58
:100AA00008F128080028F1D1019B07EB870703EB29
:100AB000C707009B82469B6839692BB1994258D879
:100AC00001F12402934254D3009A2423D2E900076F
:100AD0000BF11802B84724284BD1714BDBF81820D2
:100AE0009A4240F0FE80BBF81C70012F59D1BBF830
:100AF0001E30012B55D84FF41072002118A80EF0AB
:100B000063FCDFF8A091B5F83080D9F80040B8F167
:100B1000000F00F0748318AA08EB480E0023019818
:100B200002EB8E0ECDF80CA013E0BCF1040F38BF21
:100B30004FF0040CCCF1000A013B634403EA0A03C2
:100B4000C2E9003117720B440C32724500F12800E3
:100B50002CD081688907F7D541690029F4D0D0F8F5
:100B600020C0BCF1000FE0D16FF0030A4FF0040C7D
:100B7000E2E7029807F036FF012630460DF6242DF5
:100B8000BDE8F08F022630460DF6242DBDE8F08F2B
:100B90000326F2E70426F0E7A8AB019344E70D260D
:100BA000EBE7029807F01EFF0726E6E70020033375
:100BB00008EB880123F00308019BDDF80CA003EB90
:100BC000C1015A682833092A04BF53F8142C00EBDA
:100BD000D2009942F5D10130B8F1000F4FEA001769
:100BE00014BF40460420A047002800F0598303901A
:100BF000D9F8002038469047039B002800F0108366
:100C000007EB0802CBF80C700027298ECBE90038DF
:100C1000CBF80800CBF86C20CBF81070002900F05E
:100C20003783CDF814A006969A46DDF80490009E0E
:100C30000DF1600819E08BB1B268D9F8101022B13B
:100C4000914231D8CB189A422ED30246D6E90004FD
:100C5000039BA047039B984226D1298E0137B942B6
:100C600008F10C0809F1280940DD98F80830002B3C
:100C7000F4D0D8F80000D9F80420D9F81430504442
:100C8000082AC8F800000393D5D100211A460EF0B7
:100C90009BFB298EE2E700BF7F454C46F8F8001029
:100CA00041435052BC170020029807F09BFEDBF82E
:100CB000000010B1A64B1B689847DBF8080010B184
:100CC000A34B1B6898470023CBE90433CBF80030D3
:100CD000CBF80830CBF80C30CBF80430CBF86C30C4
:100CE0004AE7029807F07EFE062646E7DDE905A6FC
:100CF000002900F0CD824FF00008019B04E008F1CC
:100D00000108414500F0C4825A682833022AF6D10E
:100D1000019A08EB880302EBC3077B69059118462B
:100D2000069307F04DFE4FEA8804059903900028CA
:100D300000F0EB82069AB2B1009B39699B6833B12F
:100D4000994200F2FC810A449342C0F0F881DDF838
:100D5000189000984B46D0E90007039AB8474845D9
:100D600040F0ED81298E019A04EB080302EBC303E6
:100D70009B69994240F2E38103EB830302EBC307D3
:100D8000D7F81480404607F01BFE0190002800F0C1
:100D9000B982B8F1000F14D0009B39699B683BB150
:100DA000994200F2C98108EB01029342C0F0C4816C
:100DB000DDE90002D0E900074346B847404540F06E
:100DC000BB81B5F83080B8F1000F00F0EA81049FD4
:100DD00042467B680896092B0DD1D7F81C904A45EE
:100DE00009D909EB49030DEB830393F868304FEA07
:100DF0004908059373B90AF1010A524540F3D081BD
:100E0000FB6A2837092BE8D0F5E7029807F0EAFDDE
:100E10000526B2E67E69F3083046079307F0D0FD59
:100E20000490002800F06C82002E00F0B081009B3E
:100E300039699A6832B1914200F236827018824262
:100E4000C0F0328200983346D0E90004049AA047EB
:100E5000B04240F02982079B002B00F098811A468F
:100E6000C14418AB53F82960049BCDF81CA003EBD8
:100E7000C2021C46B2469046099703E00834444536
:100E800000F08281636813F0FF09F7D0039A1B0A10
:100E900002EB03110A7B4FEA031C02F00F02A2F1DE
:100EA0000202B2FA82F2CB8926685209002B00F0C6
:100EB00037814FF6F170834200F09F81288E98426F
:100EC00040F2478103EB43030DEB830090F8680089
:100ED000002800F03E8118A850F823004B68184401
:100EE000A9F1020306EB0A0C2E2B33D8DFE813F02E
:100EF000DC00FE00320032003200320032003200EC
:100F0000850032003200320032003200F800120157
:100F10003200320032003200320032003200320041
:100F200032003200320032008500320032003200DE
:100F30003200320032003200DC0032003200320077
:100F4000060132003200320032006200620000BF4F
:100F5000B8170020B9F1300F00F2C381B9F1010FC9
:100F600000F0A980A9F10A03202B00F2A480DFE899
:100F700013F0C501A200A200A200A200A200C301BA
:100F8000C101A200A200A200A200A200A200A20031
:100F9000A200A200A200A200A200BF01A200A20023
:100FA000A200A200A200A200A200D501A200A200FD
:100FB000A200D30136F80A300244B9F1300F08BF5D
:100FC000120C23F48163C2F3033123F007030B43B4
:100FD000C2F3C02143EA812326F80A30BCF802306C
:100FE000D1B223F4E14323F07F030B43C2F3022287
:100FF00043EA0233ACF8023040E7BCF8023036F87E
:101000000AE0590B81EA9E21DA0A82EA9E22C9434C
:101010006FEA0209C3F30A035A00CEF38023CEF32A
:10102000090E42EA0E3242EA03625B4203F07E435B
:101030001A4301F0010142EAC15209F0010942EAF2
:10104000895204320244A2EB0C0303F1807104398B
:10105000B1F1007FC0F0F580DBF81000DBF808701C
:1010600042F00102002800F02481002307F10C095E
:1010700003E01033984240F21C8159F803108A4271
:10108000F7D1F91841F0010121F00103A3EB0C03A2
:1010900003F18072043AB2F1007FC0F0D28004986C
:1010A00007F0A0FC0C260EE056F80A300344134467
:1010B00046F80A30E2E69A495846FFF72BFC0498B6
:1010C00007F090FC0B26019807F08CFC039807F0C2
:1010D00089FC029807F086FC5846FFF73DFC4CE57A
:1010E00036F80A30034426F80A30C7E656F80A30C4
:1010F000A3EB0C03034446F80A30BFE656F80A2077
:1011000042F31E03A3EB0C03034463F31E0246F8F1
:101110000A20B3E616F80A30034406F80A30ADE6B2
:10112000039B53F80C70019B1F443846FFF7C6F829
:1011300000287ED0059AD3E6019807F053FC039867
:1011400007F050FC029807F04DFC5846FFF704FCEE
:1011500012E5039B53F80C40019B1C4420460BF006
:10116000DDFB2F2828BF2F20214604460BF13C0031
:1011700022460EF011F900235C44049884F83C30B8
:1011800007F030FC0A269EE7DDF81CA0099F0498B2
:1011900007F028FC2A8E0AF1010A52453FF730AECB
:1011A0009046069B1E0930D0039C04EB0616E58989
:1011B00045B3019B20685B4918440CF04BFC074683
:1011C00000BB454521D20C2303FB05F518AB2B448E
:1011D0001B7AD3B118AB62685B590198134443F092
:1011E0000103CBF8143007F0FDFB039807F0FAFB7E
:1011F000029807F0F7FB3E46BFE4486870E6102708
:101200000420F0E41034B442D1D1019807F0EAFB95
:10121000039807F0E7FB029807F0E4FB09265BE779
:10122000414A184613689847029807F0DBFB0826E6
:10123000A3E458463946FFF76DFB049807F0D2FB4C
:10124000A0E7043B36F80A00D90FC3F309326FF365
:101250000A0042EA8122024326F80A20BCF8022052
:10126000C3F3C05022F43F52C3F34A0622F03F02B8
:101270004840C3F3805380F0010032434B4042EAC0
:10128000403283F0010342EAC322ACF80220F5E5C4
:10129000029807F0A7FB5846FFF75EFB09266CE4AF
:1012A000029807F09FFBC2E70498089E07F09AFB9C
:1012B00009E7DBF80C3000F1100199423FF6EFAE80
:1012C00044F26073194939503918CA608B60DBF8F1
:1012D0001030174A10334A60CBF8103041F001014A
:1012E000D2E60F49134BB9F1660F08BF1946E3E682
:1012F0001149E1E61149DFE61149DDE61149DBE676
:101300000826E0E6039807F06DFB029807F06AFBF9
:101310005846FFF721FB8AE70B49CDE60B49CBE6A0
:1013200024F8001008F90010B817002001B4024892
:10133000844601BCC8F8001068F800105CF8001082
:1013400050F8001040F800108CF800107CF80010E5
:101350000020704710B5EFF3108472B601F560708D
:1013600000034FF480510EF05BF884F310880020E6
:1013700010BD00BF8C4610B510461946EFF310841F
:1013800072B60CF5607C029A00EB0C300EF038F867
:1013900084F31088002010BD944608B501F5813112
:1013A00001F5C0711846029A0CEB01310DF0F4FF03
:1013B000002008BD70B5044615461E460A460023A7
:1013C0002146084805F03CFE002807DB33462A4644
:1013D0002146BDE87040034805F0D6BD4FF0FF3010
:1013E00070BD00BF5823002038B5542200210446A8
:1013F00022480DF0E9FF80214FF480524FF48073B2
:101400001E4D1F482962686010214FF48070EA6108
:101410004FF4FA72C5E905331A4BC5E90A01AB600E
:10142000194B2946EB60194B19482B61194B6A621D
:101430006B63194BAB63194BEB6305F001FC20B1F7
:101440003CB92046164B187038BD0120144B18705B
:1014500038BD4FF40071134809F0F8F829460C48DC
:1014600005F04AFB002807DB2946094805F0E8FBA0
:10147000B0FA80F04009E9E7002038BDF01D0020F7
:10148000991300107513001055130010511300101C
:10149000582300205422002054210020481E002000
:1014A000993200201CFA0010124B1B780BB9002057
:1014B000704730B597B00D46144640F202530246CD
:1014C00001A90D4805F0C2FC002810DB2A4623467E
:1014D00001A9094805F06EFD054601A9064805F079
:1014E000BFFC601BB0FA80F0400917B030BD00208F
:1014F00017B030BD99320020582300202DE9F0416B
:101500001A4BC2B093F80080B8F1000F05D14FF02C
:101510000008404642B0BDE8F081074654200C4622
:10152000164607F04DFA05460028F0D00146012383
:101530003A460F4805F08AFC002812DB39466A4615
:101540000B4805F05FFC0028B8BF00234046A8BF49
:10155000019B2560A360074B6360356042B0BDE826
:10156000F081284607F03EFAD1E700BF993200200B
:1015700058230020B513001050B110B504460146A1
:10158000044805F06DFC2046BDE8104007F02ABA7B
:10159000704700BF58230020194B1B781BB330B590
:1015A000D1B0184A184801A905F0B8FD002822DB7F
:1015B00000250EAC02E02378012B0DD02246124804
:1015C00001A905F007FE0028F5DC0F4801A905F088
:1015D000F3FD5DB151B030BD62680C4810A909F04F
:1015E00035F80135EAE70A4808F0B0BF094808F0C5
:1015F000ADFF51B030BD084808F0A8FFEAE700BFD2
:10160000993200205CFA00105823002074FA001070
:1016100048FA001084FA001060FA001008B5074B71
:101620001B780BB9002008BD054805F02FFE0028E7
:10163000F8DBC0F18000000308BD00BF9932002034
:101640005823002038B50D4604460A2008F03CFF18
:101650002946154808F0FAFF144B196811B11448CF
:1016600008F0F4FFD4E90521124808F0EFFFD4E9AF
:101670000012114808F0EAFFD4E902120F4808F0FE
:10168000E5FFE1690E4808F0E1FF0E4808F05EFF53
:10169000C8240A2006F050FC013CFAD1224621461B
:1016A000204606F04FFEFEE7BCFA0010342E002064
:1016B000C8FA0010D8FA0010FCFA001020FB001045
:1016C00044FB001058FB001004207146084202D071
:1016D000EFF3098001E0EFF308800149FFF7B2BFA3
:1016E00088FE0010CA00034600684CBF174A184A1B
:1016F00010B480EA0104144217D040F30902013209
:1017000013D0144A114C024042F09F420C4042F464
:10171000E002944209D00A0D02F4E064B4F5806F4F
:1017200009D000205DF8044B7047002201205DF8CD
:10173000044B1A607047C0F38924C1F389218C429D
:10174000EFD352B200EB82201860EAE700FCFF7F83
:1017500000FC0F7000FC0F00034641F30902B2F1D8
:10176000FF3F08BF01311A68C1F309010432114477
:1017700000201960704700BF2DE9F04F87B0039338
:10178000836EDDF84CB0DB69DDE9106404EB0B0718
:101790009F4200F2B180C36E824688461546002BF8
:1017A00040F0A780BBF1000F00F0BB80039B1096B8
:1017B000013B0493B8F1000F5BD0D8F80030109AC9
:1017C00093425BD02B685F46934266D0DAF868009C
:1017D000039B41695B45B4FBF1F2D0F8049001FB37
:1017E000124266D8002A64D18B4562D3B7FBF1F36D
:1017F00001FB03F31E4600932246129B10990596A7
:10180000BE1BC847002800F0818007B0BDE8F08FFC
:10181000D5E901733B449C4271D35F46DAF8680016
:10182000039B41695B45B4FBF1F2D0F8048001FBF6
:10183000124202D80AB9594577D9109B171B2B6061
:10184000049BA21A0B442344B3FBF1F301FB03F303
:10185000C1696A608B4294BFFF187F18836A109930
:101860009F4228BF1F46EB68AF600097C047002823
:10187000CBD12B68109A9A42CFD1C9E7D8E901732E
:101880003B44A3429ED9A74240F283803F1B2B6872
:101890005F4528BF5F46934298D1D5E901130B44B9
:1018A000A34293D9A1425ED9091B8F4228BF0F469C
:1018B0008CE7109B171B2B60049BA21A0B4423443C
:1018C000B3FBF1F301FB03F3C1696A608B4294BF80
:1018D000FF187F18836A10999F4228BF1F46EB6844
:1018E000AF600097C84700283FF467AF07B0BDE876
:1018F000F08FB3423FF656AF6FF0530085E7BC421E
:101900005FD23F1B5F4528BF5F4687E7129AF31BF4
:10191000059E9B44324412923444BBF1000F7FF485
:101920004CAF002007B0BDE8F08FB7FBF1F901FB29
:1019300009F92246129B1099CDF80090A7EB0906F1
:10194000C04700287FF461AFF31B9B44129B4C44BB
:101950004B441293BBF1000FE3D02B68109A9A42CC
:101960007FF45BAF54E71B1B9F4228BF1F46EB6809
:10197000611A19443A4612980DF00EFD129BABEB1A
:10198000070B3B4412933C44BBF1000F7FF415AFAF
:10199000C7E7A3EB0409D94528BFD946D8F80C10EE
:1019A000E71B4A46129839440DF0F6FC129BABEB4C
:1019B000090B4B4412934C44BBF1000F7FF4FDAE76
:1019C000AFE7A3EB0408D84528BFD846E968E71B72
:1019D0004246129839440DF0DFFC129BABEB080B2A
:1019E000434412934444BBF1000FB6D199E700BFC2
:1019F000134670B50826026886B00446D3E9001085
:101A0000936E04ADDB69CDE90010CDE902561046B6
:101A100002F11001FFF7B0FE60B9049B62689A42C0
:101A200008D0059DA1688D4204D08B4202D0501B86
:101A300018BF012006B070BD2DE9F04F1E4685B0DD
:101A4000836E0E9C109FDB6904EB070C9C4562D8EB
:101A5000C36E82460D469346002B5AD1002F6AD0A2
:101A60000BF1FF33029310972B689E4243D0DDF8B1
:101A700040804346DAF868005B454169D0F804903D
:101A8000B4FBF1F201FB124214D39AB98B4211D389
:101A9000B8FBF1F301FB03F31F46009322463146E6
:101AA0000F9B0397A8EB0707C847002836D005B05F
:101AB000BDE8F08F029BA2EB040C0B442344B3FB64
:101AC000F1F301FB03F3C169A21A8B4294BF9C445A
:101AD0008C44836A2E609C4528BF9C466A60EB68F4
:101AE000C5F808C03146CDF800C0C8470028DED18F
:101AF0002B689E42BBD1D5E901130B449C42B6D260
:101B00008C421CD2109BA1EB0408984528BF984634
:101B1000B0E7B342A2D86FF05300C8E7109AA7EB22
:101B200008031A44039F10920F9A3C443A440F92C0
:101B3000109B002B98D1002005B0BDE8F08FA3EBDF
:101B40000409109B611A994528BF9946EB684A46DB
:101B500019440F980DF020FC0F9B4C444B440F93FD
:101B6000109BA3EB09031093E2E700BF2DE9F04FB0
:101B70000E46096889B0CC1C03D9002009B0BDE825
:101B8000F08F8046806EB5681C46836991461D447F
:101B9000013DB5FBF3F503FB05F500958768F36898
:101BA0007268B8470028E9D1D6F80CB07CB34FF082
:101BB000FF33C9F800303368049373683DB30446BB
:101BC0001F460DF1180A059609E0324650460BEB08
:101BD00004010DF0E5FBA0B93444A54214D92A1B39
:101BE000082A164628BF08263B1900934946404656
:101BF000049BCDF804A00296FFF71EFF0028E4D056
:101C0000BCDB6FF05300B9E7059ED6F80CB0D8F8EE
:101C10006830FF219A6A58460DF0D6FB4FF0FF332B
:101C20003360AAE72DE9F84FDDF830800A9EB8F15D
:101C3000000F38D092461D4681460C460027826E22
:101C40000B6808E093692560B6FBF3F103FB01F133
:101C50002B46A7606160AB42F4D16068B042F1D816
:101C6000936A00EB030BB345ECD9ABEB060BC34512
:101C700028BFC346E368301A5A4618440B990DF042
:101C80008BFB6368A2685E44F31A934238BF134625
:101C9000D9F86820A8EB0B08926AA360934205D09C
:101CA000B8F1000F0CD10020BDE8F88F0123524697
:101CB00021464846FFF75AFF0028F1D0BDE8F88FCB
:101CC0000B9BD9F868205B440B932368C3E700BFE4
:101CD0002DE9F04FD1E903548BB04FF004098B4646
:101CE0000646DFF8CCA00592069419E006AFDBF8B3
:101CF0000030042231463046CDE90057CDF8089037
:101D0000FFF79AFE294A624098BB069B12EA0A0F27
:101D10001BBA83EA040323F00043069314D01C4645
:101D200044F30908B8F1FF3F14BF2346631CC3F313
:101D3000090303F108012A1F8D42A2EB0305D5D246
:101D400000200BB0BDE8F08FB8F1FF3FF8D00435AC
:101D50000095C4F309050C2D28BF0C2507AFDBF84F
:101D60000030314630462A4601970295FFF764FE5F
:101D7000A0B100280DDB059C0899D4E90120514051
:101D80002368099A6160079942404B40A260236032
:101D9000D6E7831CD4D00BB0BDE8F08F0146C5F167
:101DA0000C0278190DF010FB2046E2E70C00F07FE2
:101DB0000000F07F2DE9F04F9346C26B0C69170DC0
:101DC00089B017F4E06781468A46CD6807940FD042
:101DD000016CDAF80000814272D0D9F84470DAF868
:101DE0000460B7426CD0B1426AD0B84268D00027D4
:101DF000DFF80081059304E0624012EA080F45D045
:101E00001C4644F30906B6F1FF3F14BF2346631C8A
:101E1000C3F3090303F108012A1F8D42A2EB030556
:101E200057D3042207A9DAF80030484601910292FC
:101E300049460095FFF700FE210D01F4E06CABEB85
:101E40000702002839D1079BBCF5806F1BBA83EAD3
:101E5000040323F000430793CED1DFF89CC0C4F302
:101E6000892002EA0C0CC2F3892E4CF0804C70459C
:101E700049B24CF4801CBFD8A44507EB812728D079
:101E8000ABEB0702624012EA080FB9D10136059B9D
:101E90001FD012991A1D2A44DAF80030CDE900212A
:101EA000139AC4F30905954228BF1546494648468A
:101EB0002A460295FFF7C0FD80B109B0BDE8F08F5A
:101EC000C2F38922CBF389218A4202D08FD2084FF4
:101ED0008EE76FF0010009B0BDE8F08F139B01465B
:101EE0005A1B129B58190DF06FFAE019E5E700BF75
:101EF00000FCFFFF00FCF7FF00FC0F002DE9F04F96
:101F000089B00593C36B0C691F0D17F4E067814618
:101F10008A469346CD6807940DD0026C09688A42C0
:101F20006ED0466CDAF80400864269D0824267D0EF
:101F3000B14265D00027DFF8FC8004E0624012EA7D
:101F4000080F45D01C4644F30906B6F1FF3F14BF05
:101F50002346631CC3F3090303F108012A1F8D42C2
:101F6000A2EB030555D3042207A9DAF8003048464E
:101F70000191029249460095FFF75EFD210D01F4A3
:101F8000E06CABEB0702002837D1079BBCF5806FF4
:101F90001BBA83EA040323F000430793CED1DFF892
:101FA00098C0C4F3892002EA0C0CC2F3892E4CF0CD
:101FB000804C704549B24CF4801CBFD8A44507EB57
:101FC000812726D0ABEB0702624012EA080FB9D195
:101FD00001361ED0059A04350095DAF800300192DA
:101FE000129AC4F30905954228BF1546494648464A
:101FF0002A460295FFF720FD80B109B0BDE8F08FB9
:10200000C3F38923CBF38922934202D092D2084FA3
:1020100091E76FF0010009B0BDE8F08F0146129B17
:1020200005985A1B28440DF0CFF9E019E5E700BFE9
:1020300000FCFFFF00FC0F7000FC0F002DE9F04FCB
:1020400089B00593C36B0C691F0D17F4E0678146D7
:102050008A469346CD6807940DD0026C09688A427F
:102060006ED0466CDAF80400864269D0824267D0AE
:10207000B14265D00027DFF8FC8004E0624012EA3C
:10208000080F45D01C4644F30906B6F1FF3F14BFC4
:102090002346631CC3F3090303F108012A1F8D4281
:1020A000A2EB030555D3042207A9DAF8003048460D
:1020B0000191029249460095FFF7BEFC210D01F403
:1020C000E06CABEB0702002837D1079BBCF5806FB3
:1020D0001BBA83EA040323F000430793CED1DFF851
:1020E00098C0C4F3892002EA0C0CC2F3892E4CF08C
:1020F000804C704549B24CF4801CBFD8A44507EB16
:10210000812726D0ABEB0702624012EA080FB9D153
:1021100001361ED0059A04350095DAF80030019298
:10212000129AC4F30905954228BF15464946484608
:102130002A460295FFF780FC80B109B0BDE8F08F18
:10214000C3F38923CBF38922934202D092D2084F62
:1021500091E76FF0010009B0BDE8F08F0146129BD6
:1021600005985A1B28440DF02FF9E019E5E700BF48
:1021700000FCFFFF00FCFF7F00FC0F002DE9F04F8B
:102180000026AFB0BDF8EC4088460594BDF8F0409D
:1021900017460694BDF9F440B146CDE907401C4608
:1021A000CDE90E66DDF8E0B0DDF8E8A044F3090300
:1021B000B3F1FF3F14BF2546651CD8F80C203B1D2A
:1021C000C5F309051D44954270D3399B002B40F39C
:1021D0008B80013BDBF800503993DBF804300D9520
:1021E00004930BF1080B9F4A89EA050303EA0A03EB
:1021F0001340DBD1CAF38922002A77D1C5F30A53F1
:10220000002BD3D040F20112934200F0DB80B3F5F3
:10221000817F00F0A480079B049A05EB8321DDE910
:102220003E3098470028C0F2CA80BFD0002E00F090
:10223000C680013EC6EB06112EAB10AA03EB81034C
:1022400002EB8102D2E90174A3F144010EAA03C991
:1022500082E8030053E91BB2399233F85C2C53F83F
:1022600064AC059233F85A2C53F84C5C069233F95F
:10227000582C53F8788C079253F8542C53F8609CE0
:102280003E9253F8502C53F8483CCAF3892C0D95D4
:102290003F920493BCF1000FB0D0059AC5F3892397
:1022A000934283D3069A9342A8D37FE704220899E6
:1022B000D8F8003002920DAACDE900520846042257
:1022C000FFF7BAFB00287AD12F460D9DD8F80030D1
:1022D0002DBA65400E930EAB45F0004504933B1DAF
:1022E0002C460D950F937EE700209FE7C6EB061C5A
:1022F00010A901EB8C0001462EAA02EB8C0242F8D9
:10230000788CC0E9017442E919A999460598399B6E
:1023100022F85C0C069842F8683C22F85A0C0798A0
:1023200001F12C0322F8580C3E9842F86CBC42F89C
:10233000540C3F983F9342E914054B4B0498443AA0
:102340003E930EAB42F8040CCA4693E80300CDE975
:10235000069982E803000136CDF8149026E7C5F30C
:102360000903002B3FF422AF0022049B2946CDF83D
:1023700010900996CDF828800B941E46DDE93E5951
:102380001446DDF81C8005E065D10D99C1F3090202
:10239000944260D23078C1F3892101EB0802B16820
:1023A00000F5407041EA005141EA822148467268D6
:1023B000A847002804F1010406F10C06E4DA2FB066
:1023C000BDE8F08F284B3E9A9A423FF4EFAEC6EB41
:1023D00006122EAB03EB8203920000210992A3F1B7
:1023E00078003C220A930CF0EFFF09990A9B10AA8F
:1023F0000A4443F8788CC2E901740027059A0799CA
:1024000023F85C2C399A43F86CBC43E91A2A069AE3
:1024100043F8609C23F85A2C3E9A23F8581C43F842
:10242000542C3F9A4FF0FF3443F8502CC5F3090267
:10243000C5F389239B1A0B441BB20793531C4FF01F
:102440000059BB46DDF81080DFF820A00136059268
:1024500006933997AAE6DDF810900B9CDDE9096830
:10246000A4E600BF0000F07FE516001000FC0F603E
:102470002DE9F04F87B00592002B59D00F46816EA1
:102480005D1ECC698346083CA5424CD3B5FBF4F0F5
:1024900001380CF0BDFF109B0230A5EB80059C427B
:1024A000B5FBF4F54ED8109BB3FBF4F001380CF0FB
:1024B000AFFF109B861CA3EB8606B6FBF4F63046F6
:1024C0000CF0A6FF109BA3EB800006FB14031093F7
:1024D000B54239D94FF0040A4FF001090DF1140843
:1024E00001E0B54230D995FAA5FCAC1BB4FA84F4EE
:1024F000BCFA8CFCC4F11F04644528BF64464FEA53
:10250000840C042239465846CDE9018A059BCDF852
:1025100000C0FFF791FA09FA04F42D1B0028E0D05F
:1025200007B0BDE8F08F109B9C4203D80025BAE7A6
:102530004FF0FF32002011990A60129A136007B021
:10254000BDE8F08F0026C3E7109B059AF2E700BFB5
:102550002DE9F04F8BB0D1F834900692CA6A9145BC
:1025600080F0C980A2EB09029A4228BF1A4616469B
:1025700072B30C4682464E4615460992236B5903A8
:102580002AD5DAF86820E16BD2F81C80414523D0C7
:10259000A8EB0107AF4228BF2F46DB0200F1A6805F
:1025A0000698A36B4246CDE900100297504604F10D
:1025B0004001FFF741FA60B9E36B666B3B44E363AC
:1025C000069B3E443B44ED1B66630693D6D1099EB1
:1025D00030460BB0BDE8F08FDA0266D5DAF8682035
:1025E00043F48023D2F81C806FF00102A8EB0607A9
:1025F000AF4228BF2F46A263E663236304F10802BB
:10260000B4F80490F31905923D4A434542EA8929FA
:1026100073D8002F6CD0069BCDE90773236CE16C57
:10262000023306D1D4E911321A44964201D29E42B5
:1026300025D26FF00103DAF8682023645369D2F8D9
:1026400028B003F1FF3CC444B444BCFBF3FC03FBDF
:102650000CFCB6FBF3FEDC4528BFDC4603FB0EF3A7
:1026600000914A46C4E9113C50460599CDF804C092
:10267000FFF7A0FB0028D1DA0BB0BDE8F08FA2EB8A
:10268000060B079AF31A934528BF934619445A46F6
:1026900008980CF081FE079AB2EB0B0307938BD0DE
:1026A000089B5E445B440893B8E704F13C0204F1E4
:1026B0003803CDE901325046D4E90A2304F1400140
:1026C0000096FFF7D5FE002883D1DAF86820E16B89
:1026D000D2F81C80236BA8EB010743F48023AF42A0
:1026E00028BF2F462363DB027FF55AAF0E4685E7EE
:1026F000E663666B42E700206BE76FF0530068E724
:10270000000010202DE9F0410B6A4E6BD1F82880B3
:102710000D4604468166C366002E54D03746C66017
:10272000AB6B002B5DD0E3614FF0FF364246FF21DB
:1027300038460CF049FEA36EFF219A6AE0692660D4
:102740000CF042FEA56E2661EB6B002B58D0636641
:102750002B6C40F2FE32002B08BFFF2323676B6C0B
:10276000002B08BF6FF000436367AB6C002B08BF02
:102770001346A3672A6D511CE2671FD092B1002354
:102780004FF0FF351846C4E90855C4E90F33C4E9D2
:102790000C33C4E91233A362E3626364A363236569
:1027A000BDE8F081E96CAA6A59B1934228BF13468B
:1027B000C9088B4228BF0B46E367E0E70023E367C5
:1027C000DDE7E969F1E7404606F0FAF80746E06020
:1027D0000028A5D1E06806F005F9A36E9A6B62B9EE
:1027E00007E0404606F0ECF8E06100289CD1002E9E
:1027F000F0D0E06906F0F6F8A36EDB6B83B90CE06D
:10280000E86A06F0DDF860660028A1D16B6B002B4A
:10281000E0D0A36E9B6B002BEBD0606E06F0E2F86D
:102820006FF00B00BCE700BF2DE9F04F89B0139F9C
:102830001E463D68836E129C05F1010ADD69013C6C
:10284000083DAC4232D38046B4FBF5F001389146E6
:102850008B460CF0DDFD0230A4EB8003B3FBF5F2F8
:102860009D42C7F800A0059222D80DF1180A08E091
:102870003B680DBB02333B60059B079E023B059303
:1028800016D00024059B4A4603F00105C5F102035A
:102890009B0059464046CDE902A3CDE90064FEF70E
:1028A0006BFF0028E4D009B0BDE8F08FC7F800A0A6
:1028B000002009B0BDE8F08F01333B60DDE905364B
:1028C000013B0593DDD1F3E72DE9F04F40F2FF34F2
:1028D00089B0A242049300F0B98093020593036F7C
:1028E0000C69013343EA822BC36B06464FEA135847
:1028F00018F4E0688946CD68069440F08880DFF8D7
:1029000084A104E0624012EA0A0F45D01C4644F359
:102910000907B7F1FF3F14BF2346631CC3F3090344
:1029200003F108012A1F8D42A2EB0305C0F0898044
:10293000042206A9D9F800303046CDE900510292B0
:102940003146FFF779F8210DABEB080200283CD1A6
:10295000069B01F4E0601BBA634023F00043B0F52E
:10296000806F0693CED1DFF820C1C4F3892002EA3C
:102970000C0CC2F3892E4CF0804C704549B24CF4DB
:10298000801CBFD8A44508EB81285AD0ABEB0802C5
:10299000624012EA0A0FB9D1013752D00435CBF3A5
:1029A000090B0095C4F309055D4528BF5D46049BEE
:1029B000314603F108070197D9F8003030462A461E
:1029C0000295FFF739F8002847D000281CDB0824BF
:1029D000049B000D1870059B494643F00052304699
:1029E00006AB42F008020094FFF788FA00280BDBE0
:1029F00040F20223B3EB105F4FEA10523BD040F29B
:102A000001239A4232D0002009B0BDE8F08F026C59
:102A100009688A420BD0476CD9F80400874206D077
:102A2000824204D0B94202D04FF0000867E7C3F3F6
:102A30008923CBF38922934203D0F5D2DFF84C806F
:102A40005DE76FF0010009B0BDE8F08F1946022381
:102A50000B4A0B7012880A81D5E70146ABEB0502E1
:102A600078190CF0B1FC04EB0800AEE7049BC0F34E
:102A700009005860C7E7079B049A5360C3E700BF8B
:102A80005CFA001000FC0F7800FC0F0000FCFFFF58
:102A900003468068C1F3090188422DE9F04FD2E96D
:102AA000009A064628BF0E461F68D3F804B089B0C6
:102AB0003EB30024CDE904130DF1180808E02A46BE
:102AC00040460CF06DFC00282C4425D1A64215D9B7
:102AD000321B082A154628BF08250AEB040C394684
:102AE0004B463846CDE900C80295FEF7A5FF0BEB33
:102AF00004010028E3D009B0BDE8F08FDDE904133C
:102B00009868814204D008D9012009B0BDE8F08F4F
:102B1000002009B0BDE8F08FF6DB022009B0BDE867
:102B2000F08F00BF2DE9F04F1446C26E9BB00793A3
:102B300082462368059132B19A4240F2DA81616897
:102B40008A4240F2D6810025042212A90191504602
:102B5000514600950292CDE91255FEF76DFF84466D
:102B600018B110F1540F40F0F7800426002513AB84
:102B70000193636851465046324602960095FEF72F
:102B80005BFF8446002840F0EB80DDE91232D21A68
:102B9000AA42D4BF0022012282F001059300AE00B8
:102BA00004EB8202126805996B449B6C0A60A2597F
:102BB0008B600023CB6002234FF0FF3C0C9301F1AC
:102BC00008034A600B930D95CDF820C0AE4B04224C
:102BD00093E8030014AB83E803004FF0FF300B9938
:102BE00004F060FB089A00230A92059A4FF0FF3424
:102BF000D2F800904FF004084D4610900E9318AF95
:102C00000F93099344F30902B2F1FF3F14BF264624
:102C1000661C0421DAF86820C6F30906D269464426
:102C2000029111A901912B46514650460096FEF79C
:102C300003FF8146002840F0EC810422109811A97E
:102C400004F030FB119B10901BBA6340002B0693DD
:102C50001193C0F2F3811A46114643F30903B3F10D
:102C6000FF3F08BF0131DAF8683006F10408D3F8F5
:102C70001CC0C1F3090B0BEB0803634532D8120DDE
:102C8000059902F4F064B4F5A06F10460D6800F0E9
:102C90008280BBF1000F00F0C3814C46E14609E0A1
:102CA00032463946109804F0FDFA3444A34510909A
:102CB00040F2AF80ABEB0406082E28BF082608EBD5
:102CC0000402CDE900272B4651465046A9EB0402E9
:102CD0000296FEF7B1FE0028E2D010F1540F8346B1
:102CE00040F09C810024059BD968002900F0F48005
:102CF0001A460023DDF820C093754CB1DAF868203D
:102D00009369B1FBF3F403FB1414002C00F01F8152
:102D1000DAF83C301A0D12F4E06F0ED00598DAF8AC
:102D2000402001688A4222D0DAF844404068844258
:102D30001DD082421BD0A14219D0259B43B1059BD7
:102D40009A8ACCF38923934228BF1346259A13808D
:102D5000BCF1000FC0F2ED8060461BB0BDE8F08F03
:102D600010F1540FF8D12B46224601251AE7C3F380
:102D70008923CCF38921994240F2FF304FEA9C220B
:102D800000F02681BCF1FF3F00F04C81994288BFE2
:102D9000ACF5806CD1E70421029118A901912B4672
:102DA000624651465046CDF80080FEF745FE81460A
:102DB000002840F02E81189A109B9A4292D1119BC4
:102DC000069A1B0D82EAC37410A90422DAF82C00BB
:102DD00004F068FA4FF0FF32CAF82C00099B0598FE
:102DE000109283820F9B0568C375119B046143F3A6
:102DF0000901914214BF1A465A1C159BC2F30902DD
:102E0000C361149B043283610A9B32440893C260FD
:102E1000F8E61199059B080D02461D6812F4E0645E
:102E200036D1099BC1F38922934201D8531C0993DF
:102E3000249B83EA0104079B1C4023D12798269BEF
:102E400018AACDE918589847B0F10009C0F20981D5
:102E5000119B14D00A990D4A59400A406AB1B9F140
:102E6000020F0DD10A9AC3F38921C2F389228A4243
:102E700006D343F000430A9302E04FF0FF330A9376
:102E8000059B1D68069CBDE6A0FE001000FCFF7FB0
:102E9000B4F5806F33D0B4F5C06F00F0A68040F277
:102EA000FF50C2F30A028242C2D10821DAF8682038
:102EB0002B46D269029116A9019150465146CDF890
:102EC0000080FEF7B9FD54303FF40CAF01230E93A0
:102ED000059B11991D68ABE719460D9B0DEB83030C
:102EE0009B6C8B60D1E90023C1E900320C9B012B64
:102EF00067D16FF0530C60461BB0BDE8F08F099AA4
:102F000040B2024493B20993594A0A9B1A4042F0D4
:102F10009F4242F4E0028A4256D05A1C88D0C3F342
:102F20008922C1F38924A24282D303EB80230A932E
:102F30007EE7CCF38923059A928A9A4294BF4FF098
:102F4000000C6FF0010C60461BB0BDE8F08F0E9BCB
:102F5000002B3FF4DDAE059BDDF858804FF0FF36C7
:102F6000D2F81C90D3F800B0B8F1000F71D0CDF8B2
:102F700018B018AF8B46CDF81CC008E030462A4682
:102F8000394604F08FF92C44A04506465FD9A8EBDA
:102F90000405082D28BF08250BEB040300935146B8
:102FA0005046069B0197A9EB04020295FEF744FDEB
:102FB0000028E3D010F1540FDDF81CC049D084463E
:102FC000CAE601230C9301E643F000430A932FE77E
:102FD000C2F30903259A002AADD01146059A928AB8
:102FE0009A4228BF1A460A80A5E7082100F001028C
:102FF0000F92DAF8682014A8D2692B46CDE9008038
:10300000029150465146FEF717FD814600283FF4D5
:103010005FAF19F1540FCB463FF464AEDC469BE63C
:103020000699FBE6259B33B11A46059B9B8A834292
:1030300028BF0346138040F2FF337CE7240D04F4DD
:10304000F064A4F5A064B4FA84F464094BE6DDF8F6
:103050001CC0179B059A9B1BB3FA83F35B099375FE
:1030600056E619F1540FCB463FF43DAEDC4673E60D
:1030700000FC0F002DE9F04F01254FF0000C2B460E
:103080008DB08146C2E906C5884665469B46254FF8
:10309000254E144618324FEA4B0BCDE9063B4FF054
:1030A000010AA3464C46E146059209ABCDE90273FD
:1030B000CDE90065D8F8043059460B93D8F80030B4
:1030C00020460A93059A194B0994FFF72BFD08B186
:1030D000831C15D1DBF81800411C0FD0DBF81C3025
:1030E0005A1C0BD04845069A0DD090420DD19945F7
:1030F0000BD16FF053000DB0BDE8F08F6FF0010001
:103100000DB0BDE8F08F9A42F3D0079A524502D035
:103110000AF1010AC9E7A14684465C46059ADDF832
:103120001CB0B8E7F119001008000020FF03F07F81
:103130002DE9F04F4FF0010C4FF0000E4FF0FF382B
:10314000144606460D4667467346C246E14685B0BC
:10315000C2E906EC02F1180BE269511C22D053457A
:1031600029D0434534D04F452CD009F101092968B5
:103170008B421CD06868904219D0834217D091428C
:1031800015D000234FF0FF3CCDE90233CDE900C359
:103190005A46214630466346FFF7C4FC20B9A3696E
:1031A000581CD9D16FF0010005B0BDE8F08F0020A8
:1031B00005B0BDE8F08F9045D5D16FF0530005B054
:1031C000BDE8F08F90469A464FF001097F00CEE7A8
:1031D0005245C8D1F1E700BF2DE9F04F91B0D2F8C8
:1031E000008096460A93D0E90823C1E9062398F89F
:1031F0000030002B00F0B180DFF878B102238A465E
:103200005A46814601F118050693CDF824E0C3F330
:103210000A03022B079306D14046544905920AF04F
:1032200081FB059A80444046504905920AF0ACFB68
:1032300001280446059A75D0022804D198F8003078
:103240002E2B00F0858008EB04031E4601279346D1
:103250000B93CDF81480089403E0022812D00137B4
:103260002618424930460AF05DFB341880463F4933
:1032700020460AF089FB98B10128EED123782E2B45
:10328000EDD1EDE716F808302E2BE8D163782E2B20
:10329000E5D1013FE4D15A46069B04F10208B6E7A6
:1032A000DDF814805A4698F80030089C002B57D05F
:1032B000099BC3F80080079B022B53D140F2FF33D8
:1032C000CBF389229A420CD00823009303F10053D8
:1032D00043EA822251462B464846FEF70FFE021E65
:1032E0003EDBC3464F46A846DDF828900DAE03E00E
:1032F00020D19AF817302BB31D4D4FF0F0434246C2
:1033000051463846CDE9019503960094CDE90D7BF1
:103310000F94FFF707FC0028EADA8346584611B0FD
:10332000BDE8F08F98F800302E2B8CD1069B08F169
:1033300001086CE7030D45460246B946DDF82C80CE
:10334000069364E76FF0010B584611B0BDE8F08FAB
:1033500098F801302E2B7FF476AF6FF0150BDDE778
:103360009346DBE76FF0130BD8E700BF5CFA001061
:10337000912A001000FC2F002DE9F04F00230122BC
:103380000E4640F20229B346944611469846064638
:1033900093B0CDE90B33CDE90D33CDE90F33554F64
:1033A0000A93119201229A46490004920791CDF89E
:1033B00014C04FF0FF33CDE90288CDF80480DBF86C
:1033C000002030460232CBF800200AA910AA009350
:1033D000FFF7A8FB0246002840F08680BDF83C308D
:1033E000D3B1CDF818A0154608249246304608AB54
:1033F00000940AA947EA8522FEF780FD00281FDB1A
:10340000B9EB105F23D0BDF83C200135ABB29A4236
:10341000ECD85246DDF818A0109C611C25D01198FC
:10342000431C22D05445059B59D09C4201D1824572
:1034300057D0049B079A934258D001330493B8E7BE
:10344000831CE0D08346584613B0BDE8F08F099B3B
:10345000002BD8D0CDE9003B324600213046089BF6
:10346000FFF7E2F90028CED0ECE73546AC6A5E46BD
:10347000934644B9E7E703F49013B3F5003F1FD038
:103480002468002CDFD0A379012BF9D1236B03F43E
:103490008812B2F5803FEED1E76A04F14001002FB7
:1034A000E9D0A36A2A462846CDE90076FFF7BCF9A1
:1034B0000028C7D1236B03F49013B3F5003FDFD18D
:1034C000676B04F14001002FDAD0A36B2A4628462F
:1034D000CDE90076FFF7A8F90028D1D0B2E79842ED
:1034E000A7D16FF0530BAEE78346ACE78446234683
:1034F000079957E7080000202DE9F04FD1E9005661
:10350000894617469B4687B0002B39D004469A4619
:103510004FF00008806E23690392049209E08269EB
:103520002561B6FBF2F302FB03F363612B46C4F89B
:1035300018809D42F3D163699E42F0D3826A1A4497
:103540009642ECD2921B524528BF52461746E0697C
:10355000F31A039918443E4405920BF01DFFD4E979
:103560000521B31A8B4238BF0B46A06EAAEB070A9F
:10357000816AA3618B4215D0BAF1000F2FD1049F4D
:103580005A463946D9F80C0003F08CFE024600205A
:10359000D9F80430C9F80C205B44C9F8043007B0EE
:1035A000BDE8F08F2169CF1CE6D8D0F818E00EF105
:1035B000FF3C6344B3FBFEF30EFB03F3009383680D
:1035C0001F46E369B8470028E9D1A36EFF219A6A34
:1035D000E0690BF0F9FE4FF0FF332361CCE7039B6A
:1035E000059AA06E134403932369A2E72DE9F04FD7
:1035F0000E46D0E916134FF000088346374699B0BF
:103600000DF1380A4FF0000908F1010588F00108B2
:10361000CDE9055807978B4280F09681DBF864402E
:1036200007E0DBF860200133013A8B42CBE9173227
:1036300062D0DA08A25C03F00700C240D707F0D4DA
:10364000DBF85420DBF86C101344B3FBF1F2DDE936
:10365000055801FB1233079F47F82830DBE9172094
:10366000DBF85810531C02EB000C04E0A25DC240D2
:10367000D6070CD57346ACEB03029942CBE917325F
:103680004FEAD30603F0070003F1010EEED8022D36
:103690004FF00108B6D13C460025042254F8083BFF
:1036A000594601945846BD6000950292FEF7C4F950
:1036B0003E46034610B110F1540F19D1DBF86830C3
:1036C0005A6A002A0ADDB368013242F00102013B66
:1036D0001344B3FBF2F302FB03F3B36000214FF09A
:1036E000FF3204200B46C6E905123261F060F26138
:1036F000184619B0BDE8F08F1046002800F07F8210
:10370000DBF8543001270B44DBE91A21B3FBF1F459
:1037100001FB1433D26ACBF85430D30083424FF00C
:10372000000528BF0346B8463C462946CBE9163576
:10373000DBF864000BF048FECDE91155CDE91355D7
:10374000CDE91555109517973B4664000121274692
:103750002A461C460491DBF86C00DBE91561A0EBFE
:10376000060C6244B2FBF0FC00FB1C228A420ED223
:10377000DBF86400D10802F00703425C08FA03F3A7
:1037800013434354179BDBF86C00DBE915610344DA
:103790009B1BB3FBF0F200FB12338B4257D34FF06D
:1037A000FF3300265846CDE90036CDE9026616AA59
:1037B00010A9FFF7B7F9034600283DD1BDF8542002
:1037C0000AB31E46CDE908740823C64A009358463A
:1037D0000CAB10A942EA8622FEF790FB031E29DB00
:1037E00040F20221B1EB135F4FEA13523AD0B2F527
:1037F000007F00F0AD80BDF854200136B3B29A428C
:10380000E2D8DDE90874169A501C00F0DA80179BA4
:10381000591C00F0D680AA4200F0EB81A24202D1EE
:10382000AB4200F0E98104998F4200F0EB81013155
:10383000049190E79C1CDED0DBF86C200021184638
:10384000CBE91611CBF8602019B0BDE8F08FDBF89A
:103850006410DA08885C03F0070308FA03F30343F3
:103860008B549CE70D9C002CC5D0DBF86830013CE4
:10387000DF69083FBC42C0F0A280B4FBF7F001381A
:103880000BF0C6FD831CA4EB8304B4FBF7F4DBE967
:103890001501DDF830C0CDE90A656546DBF86C201E
:1038A0000EAFAB18181AB0FBF2FE02FB1E0204F0BA
:1038B0000106C6F102038A424FEA83030BD2DBF80A
:1038C0006400D10810F801E002F0070208FA02F2E1
:1038D00042EA0E024254002C6ED05A46CDE90273E1
:1038E00000215846CDE90059FDF746FFDBF86C2072
:1038F00003460028A2D1DBE91501EEB90E9B134463
:103900001B1AB3FBF2FC02FB1C3303F0070C8B42C7
:103910004FEAD30E08FA0CFC14D2DBF8643013F82B
:103920000E204CEA020C03F80EC00123DBF8540011
:10393000DBF86C20DBF858100DEB8303023C9D6B29
:103940003444AEE70123F7E71946DBF86000D4E61C
:10395000DBF86C200C9BDBF8540013441B1AB3FB00
:10396000F2F102FB1133DBF8581099420ED9012213
:10397000DBF86400D90803F0070302FA03F3425CA2
:1039800013434354DBF86C20DBE915010D9B134412
:103990001B1AB3FBF2F002FB10338B42BFF42BAFC8
:1039A0000120DBF86410DA0803F0070300FA03F3E0
:1039B000885C03438B541EE7DDE90A651BE700249E
:1039C00065E7DBF82850002D00F00C81012609E0A6
:1039D00003F49013B3F5003F00F086802D68002DAE
:1039E00000F00081AB79012BF8D12B6B03F4881226
:1039F000B2F5803FECD1EC6A002CE9D0DBF86830FE
:103A0000013CDF69083FBC42C0F0F180B4FBF7F035
:103A100001380BF0FDFC831CA4EB8304B4FBF7F42A
:103A2000DBE91502D5F828C005F140080495654684
:103A3000DBF86C106B18181AB0FBF1FE01FB1E01CD
:103A400004F00107C7F1020391424FEA83030BD24E
:103A5000DBF864E0C8081EF8002001F0070106FA50
:103A600001F10A430EF80020002C00F0B3805A4602
:103A700041465846CDE902A3CDE90059FDF77CFE49
:103A8000DBF86C1086460A46002840F0A180DBE98E
:103A90001502EFB90E9B0B441B1AB3FBF1FC01FBA3
:103AA0001C334FEAD30C934203F0070306FA03F3E7
:103AB00015D24FF0010EDBF8642012F80C100B4306
:103AC00002F80C30DBF85400DBF86C10DBF85820FF
:103AD0000DEB8E0E023CDEF838503C44AAE74FF066
:103AE000010EF5E7080000206C6B002C3FF476AF68
:103AF000DBF86820013CD769083FBC4275D3B4FBB2
:103B0000F7F001380BF084FC831CA4EB8304B4FBB6
:103B1000F7F4DBE91502D5F838C005F14008049543
:103B20006546DBF86C106B18181AB0FBF1FE01FB50
:103B30001E0104F00107C7F1020391424FEA83031B
:103B40000BD2DBF864E0C8081EF8002001F0070182
:103B500006FA01F10A430EF80020002C3DD05A4627
:103B600041465846CDE902A3CDE90059FDF704FED0
:103B7000DBF86C1086460A4650BBDBE91502EFB94C
:103B80000E9B0B441B1AB3FBF1FC01FB1C334FEAE9
:103B9000D30C934203F0070306FA03F315D24FF058
:103BA000010EDBF8642012F80C100B4302F80C3005
:103BB000DBF85400DBF86C10DBF858200DEB8E0EB0
:103BC000023CDEF838503C44ADE74FF0010EF5E71B
:103BD000734633E6049D2B6BFAE6049D2D68002D99
:103BE0007FF400AFDBE9161315E5002491E700240C
:103BF00016E7A3427FF417AE6FF053031CE66FF095
:103C00001B0375E53C4615461F469DE52DE9F04F23
:103C10004FF0000B04460E4697B00DF1300AD4E980
:103C20001603984240F25881656E06E0226E013319
:103C3000013A8342C4E9173228D0DA08AA5C03F0BB
:103C40000701CA40D707F1D4626D1344E26EB3FB9B
:103C5000F2F102FB11333360D4E91726A76D164445
:103C6000013204E02B5CCB4013F001030AD0B31AFD
:103C70009742C4E917234FEAD20002F0070102F18C
:103C80000102EFD8002017B0BDE8F08F11460029DF
:103C900000F07782636DA0461844D4E91A23B0FB84
:103CA000F3F5D26A03FB1500D3008B424FF00005F9
:103CB00028BF0B466065A365E5652946606E0BF07D
:103CC00083FB01232F46CDE90F55CDE91155CDE9F1
:103CD00013550E9599461D461C4615933A466400A9
:103CE000012127462B46144604910596D8F86C000E
:103CF000D8E91561A0EB060C6244B2FBF0FC00FBB6
:103D00001C228A420ED2D8F86400D10802F00703C0
:103D1000425C09FA03F313434354159BD8F86C0033
:103D2000D8E9156103449B1BB3FBF0F200FB12338F
:103D30008B4209D2D8F86410DA08885C03F00703D4
:103D400009FA03F303438B544FF0FF330026404638
:103D5000CDE90036CDE9026614AA0EA9FEF7E2FE0F
:103D6000034600283DD1BDF84C200AB31E46CDE9DC
:103D700006740823BE4A009340460AAB0EA942EAE5
:103D80008622FEF7BBF8031E29DB40F20221B1EBCD
:103D9000135F4FEA13522FD0B2F5007F00F0A480DA
:103DA000BDF84C200136B3B29A42E2D8DDE9067480
:103DB000149A501C00F0CE80159B591C00F0CA804C
:103DC000A24200F0D581AA4202D19C4200F0D381E8
:103DD00004998F4200F0D8810131049186E79C1C40
:103DE000DED018464446D8F86C200023C4E91633C8
:103DF000226617B0BDE8F08F0B9C002CD0D0D8F80D
:103E00006830013CDF69083FBC42C0F0A180B4FBD0
:103E1000F7F001380BF0FCFA831CA4EB8304B4FB2D
:103E2000F7F4D8E91510DDF828C0CDE90865654636
:103E3000D8F86C200CAFAB18591AB1FBF2FE02FB9C
:103E40001E1204F00106C6F1020382424FEA830308
:103E50000BD2D8F86400D10810F801E002F0070294
:103E600009FA02F242EA0E024254D4B34246CDE9C4
:103E7000027300214046CDE9005BFDF77DFCD8F8D8
:103E80006C20034658BBD8E91510EEB90C9B1344BF
:103E90005B1AB3FBF2FC02FB1C3303F0070C8342FA
:103EA0004FEAD30E09FA0CFC14D2D8F8643013F898
:103EB0000E204CEA020C03F80EC00123D8F854106F
:103EC000D8F86C20D8F858000DEB8303023C1D6B2A
:103ED0003444B0E70123F7E71846216ED7E644469D
:103EE00083E7DDE908655BE7D8F86C200A9BD8F822
:103EF000540013441B1AB3FBF2F102FB1133D8F840
:103F0000581099420ED90122D8F86400D90803F05C
:103F1000070302FA03F3425C13434354D8F86C20BE
:103F2000D8E915010B9B13441B1AB3FBF2F002FBFB
:103F300010338B42BFF434AF0120D8F86410DA0894
:103F400003F0070300FA03F3885C03438B5427E76D
:103F5000002466E7D8F828704446059E002F3FF4F9
:103F60005EAE0125B14609E003F49013B3F5003FBE
:103F700000F080803F68002F00F0F480BB79012BB7
:103F8000F8D13B6B03F48812B2F5803FECD1FE6AA6
:103F9000002EE9D0A36E013EDB69A3F10808464577
:103FA000C0F0E480B6FBF8F001380BF031FA831C66
:103FB000A6EB8306B6FBF8F6D4E915E27046D7F80F
:103FC00028C0E16E07F1400804970CEB0103181AB2
:103FD000B0FBF1FE01FB1E0106F00107C7F1020371
:103FE00091424FEA83030AD2606ECA0810F802E0D9
:103FF00001F0070105FA01F141EA0E018154002E9A
:1040000000F0A880224641462046CDE902A3CDE932
:1040100000CBFDF7B1FBE16E86460A46002840F072
:104020009780D4E91502CFB90C9B0B441B1AB3FB44
:10403000F1FC01FB1C334FEAD30C934203F007035E
:1040400005FA03F311D24FF0010E626E12F80C1054
:104050000B4302F80C30606DE16EA26D0DEB8E0E1D
:10406000023EDEF830C03E44AFE74FF0010EF5E708
:10407000080000207E6B002E3FF47CAFA26E013E54
:10408000D369A3F1080846456ED3B6FBF8F00138B2
:104090000BF0BEF9831CA6EB8306B6FBF8F6D4E959
:1040A00015E27046D7F838C0E16E07F14008049772
:1040B0000CEB0103181AB0FBF1FE01FB1E0106F028
:1040C0000107C7F1020391424FEA83030AD2606EEF
:1040D000CA0810F802E001F0070105FA01F141EA0F
:1040E0000E018154002E38D0224641462046CDE9AB
:1040F00002A3CDE900CBFDF73FFBE16E86460A4601
:1041000030BBD4E91502CFB90C9B0B441B1AB3FB8F
:10411000F1FC01FB1C334FEAD30C934203F007037D
:1041200005FA03F311D24FF0010E626E12F80C1073
:104130000B4302F80C30606DE16EA26D0DEB8E0E3C
:10414000023EDEF830C03E44B2E74FF0010EF5E724
:1041500070464AE6049F3B6B06E7049F3F68002FCA
:104160007FF40CAF4E465AE5002698E7002623E779
:104170009D427FF42DAE44466FF05300D8F86C207A
:1041800033E66FF01B007EE53C461D461746059E54
:10419000A4E500BF2DE9F04F83468BB08A46584610
:1041A00009A9FFF733FD0646A0B9DBF868000999B5
:1041B000C3689847064690B110F1540F0AD14FF0EA
:1041C000FF335846CBF8103009A9FFF71FFD06460C
:1041D0000028EAD0344620460BB0BDE8F08FDAF86C
:1041E0003C70002F00F0BE8035460796DAF830307C
:1041F0007F1BDB0240F19B80DBF868300AF108018D
:10420000DA69BAF804806B1C04915B49934241EA75
:10421000882800F2A48001232E460DF12304069481
:104220000593DAF84030DAF84C10023306D1DAE9B7
:1042300011321A44964201D29E4228D26FF00103F5
:10424000DBF86820CAF840305369D2F828E003F15F
:10425000FF3CBC44B444BCFBF3FC03FB0CFCB6FBCE
:10426000F3F9F44528BFF44603FB09F300914246F5
:10427000CAE9113C58460499CDF804C0FDF79AFDEF
:104280000028CEDA044620460BB0BDE8F08FA2EB42
:104290000609059AF31A914528BF914619444A46E2
:1042A00006980BF079F8059AB2EB090305935DD1F6
:1042B00001265A465846CDE90054099B0BF11001DE
:1042C0000296FDF7AFFC002844D1DAF83C700135C6
:1042D000AF428BD8D146DA46079CDAF86830DAF874
:1042E0001C109A6AD9F84C000BF056F8DAE904026F
:1042F000DAF81830C9E91002C9F84830DAF868303D
:10430000FF219A6ADAF81C000BF05EF84FF0FF31DB
:104310002046D9F83030099A43F40033CAF8101017
:10432000C9F83820C9F830300BB0BDE8F08F01264D
:10433000DAF838100DF1230400913B465A465846EE
:10434000CDE901540AF140010396FDF715FA002862
:10435000AED097E710F1540F3FF431AF92E76FF012
:1043600053008FE7D1460446DA46B6E7069B4E4433
:104370004B44069355E700BF000010202DE9F04F95
:104380000D6B1C46EB02074616468B468FB00BD5CD
:10439000D1F834C0CB6A0CEB04029A4238BF1A46FB
:1043A000C36F9342C0F0E780002C00F079812A4669
:1043B000A14625460BF1400A91037BD412F48013E9
:1043C00040F0B480DBF83410002940F04181D84639
:1043D000FB6ECDE909653B66DBF83830CDF82090FF
:1043E00007934B1E0593069138460CA9FFF70EFC68
:1043F000002840F01A81B86E0C9EC3683146984779
:10440000002840F0AB80069BBD6E002B00F054816D
:10441000D5F81C90059BA9F1080B5B45C0F0A68060
:10442000B3FBFBF001380AF0F3FF059B841CA3EB00
:104430008404B4FBFBF420460AF0EAFF069BA3EBDE
:10444000800304FB1B3BD94500F0E180BBF1000F6A
:1044500000F02881CDF8108000244FF00109DDF82C
:104460001C800DAD0FE0009433463A465146384665
:10447000CDE90159FDF7D6FB0134002840F0D0808A
:104480005C4500F0D480434639463846CDE90159B1
:104490000094ABEB0402FDF7CFFA0028E3D0DDF87F
:1044A00010B0DBF8303043F40023CBF830300FB0DD
:1044B000BDE8F08FBB6EDBF83C80D869804546D004
:1044C000DBF83830A0EB080048452A4628BF4846AC
:1044D0004546044690460AE010F1540FE1D1594692
:1044E0003846FFF757FE0028DBD1DBE90E353A46A8
:1044F00051463846CDE901640095FDF793FB00284D
:10450000EAD1DBF83430B9EB04092344CBF834307A
:10451000DBF83C3045462344CBF83C30FB6E264468
:104520003B6600F0BC80DBF8302045E7BB6ED86905
:104530006FF00103DBF83480CBF83830CBF83C80E7
:10454000A0EB080042F40032CBF83020BCE7D302E5
:10455000EED4DBF834103AE7DDF82C8010F1540F7C
:1045600063D14FF0FF33C8F840303DE7069B9945D3
:1045700011D09B466EE7C36EC1F83CC00366FFF7DF
:1045800009FEDBF83050002840F0818025F48015CA
:10459000CBF8305008E70123834604930DADCDF8E6
:1045A0002C800024B0464FF004092E46079B0D9343
:1045B000A50043463A4651463846CDE90169009583
:1045C000FDF730FB0028C7D15C450AD004223946EC
:1045D0003846CDE901690D9B0095FDF72DFA0028BD
:1045E0005AD1049B01349C42E2D14346DDE909657E
:1045F000DDF82CB04FEA8408CBE90E38BA6EDDF84E
:104600002090D069DBF83020A0EB08009AE7631C0B
:1046100093FAA3FBBBFA8BFB0BF101030493BDE7F9
:1046200010F1540FDDF810809BD0C34639E7D8460F
:10463000DDF82090DDF810B0BA6E3346DDE909658B
:10464000CBE90E38D069DBF83020A0EB080079E721
:104650000D930DAB013902930BF1380300910193D7
:104660005146DBE90A233846FDF702FF00287FF4B4
:1046700018AFBB6EFF219A6ADBF84C000AF0A4FE6B
:104680004FF0FF33DBF83410CBF840309FE645F4B1
:104690000025CBF830500AE7DDF82CB001E744469E
:1046A000204604E741462A463346DDE90965D846F7
:1046B000DDF820908B46C3E7194633462A46DDE9EC
:1046C0000965C346C8E90E31DDF82090D0698846F7
:1046D000DBF8302036E700BF2DE9F0410B6B0546D3
:1046E00058030C4698B008D5D90258BF4FF0FF3296
:1046F00023F4802358BF226423639A0303D4002049
:1047000018B0BDE8F08113F48011666BD4F82C80EA
:1047100046D1542202A80AF057FE01234FF0FF377A
:10472000CDE90D83A36A0DF1480C46450C930F9615
:1047300095E80F002F608CE80F001AD2012328465D
:104740000DF1070202A9FDF703FF0028D8DB0123C2
:10475000214628460DF10702FFF710FE0028CFDBA7
:104760002B68626B0133E36A28D09A4212972F605C
:10477000E4D304F1400708E010F1540FC0D1214602
:104780002846FFF707FD0028BAD101232A463946FB
:104790002846FDF7EBF90028EED1D4E90C3203E00E
:1047A000B045424638BF3246A16B23F4003343F490
:1047B0008033C4E90A12C4E90C36A0E79A42BDD39B
:1047C000D7E700BF41F309032DE9F04FB3F1FF3FF5
:1047D00014BF0E464E1CD0F804B01746DBF8043068
:1047E000DBF814200433C6F309063344934205680A
:1047F00089B044D8DBF8083021F0004253401BBA9E
:10480000059207930C4604235946284607AAFEF74B
:1048100073FE814600BB002C22DA4EB34C464FF0AB
:10482000010A0DF11B0809E00123424659462846BA
:10483000FEF762FE013470B9A64219D07B682946A2
:10484000E21828463B680092CDE9018A321BFDF749
:10485000F3F80028E8D08146484609B0BDE8F08F5B
:1048600033463A4628465946FEF746FE0028F2D11E
:104870004846059BCBF8083009B0BDE8F08F6FF0D3
:104880001B09E9E74B68826E2DE9F04F83468A46A3
:10489000D2E9061003F114044A1E844294BF12198F
:1048A0001218B2FBF1F201FB02F293B093420492B0
:1048B00080F0C081043A0A9200220B92089240F2E2
:1048C000FE310A9A03F10408D21A8A4294BF904436
:1048D0008844049A9045C0F00081FF238DF837305A
:1048E000DBF86830D3E906239B1A434580F0078143
:1048F000DAE901314FF0A0400DF14009A8F10402BE
:10490000D31A034343F47F2343F4406306934B409D
:104910001BBA04224946DAF80C00109302F0C2FCDC
:10492000DAE900450346DBF868000BF11002816A02
:104930000827CAF80C3011930026DBF81030CDF8A8
:104940001C9009920BE08269CBF81040B5FBF2F3A2
:1049500002FB03F3CBF814302346CBF818609C42DB
:10496000F1D1DBF81430AB4203EB0102EBD8AA42E1
:10497000E9D9521BBA4228BF3A46DBF81C00EB1AB1
:104980000799184405920AF007FDDBE905320599FD
:10499000DBF868000D44EB1A934238BF1346826A75
:1049A0007F1A9342CBF8183026D0002F40F0538165
:1049B000089B33B9DAF8043004330893DAF80C3082
:1049C0000B939DF837304FF0FF32DB43CAF80C20D1
:1049D0001B06069A03F000435340CAF80830049BB4
:1049E000CAF80480434512D9DBF81430826A1344B4
:1049F00043450CD9434662E700235A465846099975
:104A0000FDF7B4F8002863D1DBF86800CDE74FF07C
:104A1000FF34DBF81010CBF80040CB1C1DD8DBF8BE
:104A20001830826923441344B3FBF2F302FB03F30F
:104A300000938568DBF81C30DBF81420A8470028B9
:104A400046D1DBF86830FF219A6ADBF81C000AF0D7
:104A5000BBFCDBF86800CBF8104003699847B8BB93
:104A6000DAF80430049A9A423FF629AF089BCDF851
:104A70001490DAF81090DAF80010B3EB090703F19C
:104A8000040800F0D480CDF818A04FF0FF360024C1
:104A9000DDF814A0049109E030462A46514602F0A0
:104AA00001FC2C44A742064640F29B803D1B082D8A
:104AB00028BF082509EB0402CDE9002A59465846CB
:104AC000049BA8EB04020295FCF7B6FF0028E3D094
:104AD0000346184613B0BDE8F08F1146143A9045CE
:104AE00028BF9046FF2288458DF83720BFF4F8AEE6
:104AF0004FF0A040DAF808100DF14009FEE601235E
:104B000002930DF13703CDF80080019359465846C2
:104B1000DAF80030FCF790FF10B110F1540FD7D144
:104B20004FF0FF32DBF868300F929F69DAF80030FF
:104B30000E9717B30DF140094E460024994608E040
:104B40002A4631460F9802F0ADFB2C44A7420F9045
:104B500013D93A1B082A154628BF082508EB040C70
:104B60004B4659465846CDE900C60295FCF764FF0E
:104B70000028E5D010F1540FAAD1DAF80430DAF8A1
:104B800014200C3393424FD8DAF808300DF1400965
:104B900083F0BF4383F4FF0383F4F84383F00803F7
:104BA0001BBA10934A46042351465846FEF7A4FC0C
:104BB00000288DD10823514658460EAAFEF79CFCCA
:104BC000002885D19DF83700274BC043C0F3C010A3
:104BD00000F5A0601946CAF808300005DAF804307C
:104BE0008CE6DDF818A00B9FB7421AD10424089A6E
:104BF000059DDAF800305946009258462246019544
:104C00000294FCF719FF034600287FF462AF04907A
:104C100022462946384602F045FB049B00283FF413
:104C200058AF6FF0530354E76FF01B0351E74FF099
:104C3000FF36D8E7DAF81090DAF80010C9F100076B
:104C4000B9F1000FEDD0002310AA4FF0040808932B
:104C500005920B9317E7079B059A816A1344079304
:104C6000DBF810307BE600BF08FCFF5F2DE9F04F5A
:104C70000546806E97B01E46436A08928A68002BEC
:104C80000C46BDF884A0BDF888B0496802F1010265
:104C900007DD013343F00103B2FBF3F703FB1723F6
:104CA000D3B14FF00009C846A26000274FF0FF3291
:104CB000C36CCDE91222109111971497002B39D0B3
:104CC000083B1593C3689847002835D010F1540F5E
:104CD0000FD017B0BDE8F08FA2602268002A00F064
:104CE000C380012940F2CA80012A00F0C1804FF040
:104CF00001094FF0FF332B612368002B00F0BB80CC
:104D00006268012A40F2B780012B00F0B480284687
:104D1000211DFEF77BFF30B110F11C0FD9D1B9F185
:104D2000000F00F0A8804FF000094FF00108616803
:104D3000A86EBAE7C369C3E70423284610A904F1A3
:104D40000802FEF7D9FB0028C0D1089B0246009359
:104D500010AB0C93614B28460693614BCDE903AB36
:104D60000293CAF100031BB205930BAB0793209982
:104D70004FF0FF3301960B95FDF700FA0028A5D1FF
:104D8000A36901337ED0E36901337BD0E27D5549CD
:104D900002F5C062119B41EA0251159A0C3393420D
:104DA00069D8129B10A84B401BBA0DAF09910D9307
:104DB000014604233A462846FEF79EFB002885D18B
:104DC00010AA11460823284604F11802FEF794FBA6
:104DD00000287FF47BAF09991291B8F1000F78D1C8
:104DE000EA6B2B6B686B53402A6C696C5040AA6B62
:104DF0004A40A96C4B406FF309030D93EB6C2146BD
:104E000043400E932B6D284653403A460F93FCF7D0
:104E10005FFF00287FF45DAFDDE90D3213430F9A89
:104E2000134331D1284610A9FFF72CFD00287FF449
:104E30004DAFD4E90012129BC4E90021119AABEBEB
:104E40000A0AA4F814A02361E260C5E912002865EB
:104E5000B8F1000F06D105F13C03303595E80700A5
:104E600083E80700404634E790464FF001091CE70D
:104E70009146984619E76FF01B002AE798464FF0D5
:104E8000010912E70DAFA8E7119B159A1033934261
:104E9000F1D8129B284683F0FF4383F4FF0383F489
:104EA000F84383F00C031BBA0A9310A904230AAA3F
:104EB000FEF722FB00287FF409AF3A460C23284670
:104EC00010A9FEF719FB00287FF400AF064B1293E0
:104ED000A8E70022104613468BE700BFC547001025
:104EE00000FC0F4008FC0F000CFCFF7F2DE9F04F89
:104EF0008346A7B0CDE90923BDF8C470DFF834A517
:104F0000DFF834951EAE0B91012F4AD900243D469F
:104F1000A0461FE0DBF86820D2F84CC0BCF1000FBF
:104F200001D1D2F81CC0FE2D0FD89069ACF1280138
:104F3000431E03EB5C03B3FBF0F300FB03F38B4274
:104F400028BF0B461E998B4220D204EB55043D1B13
:104F5000012D1CD90A98A1B24A420190099812B2B7
:104F6000CDE90472039100904FF0FF3300225846C0
:104F7000CDE906A63099CDF80890CDF87880FDF7F8
:104F8000FDF80028C6D027B0BDE8F08F5CB13146EF
:104F90005846FEF72BFB002800F09E8010F11C0FF6
:104FA000F1D1DBF86820536A002B40F389800B981D
:104FB0000133826843F001030132B2FBF3F103FBDA
:104FC0001122002A7CD1036823B14268012A01D949
:104FD000012B75D1002358461EA91E93FEF7CCF96C
:104FE00000B91E980028CEDBDBF86C30181AB0EB45
:104FF000D30F65D9DBE916C34FF00008BA46DBF8DA
:105000006010CDF830A04FF00009DA4608F1010732
:1050100088F001060E979C457CD9DAF8644004E0DC
:1050200001336345CAE9173175D0DA08A25C03F091
:105030000700C240D2070F4601F1FF31F0D4D3463A
:1050400026AA02EB8600DBF85420DBF86C101A4429
:10505000B2FBF1F63D4601FB16221D440E9FDDF822
:1050600030A0013340F8402C09E0DA08A25C03F0DC
:105070000700C240D60703F1010005D50346E91A2F
:105080006345CBE91731F0D3022F4FF00108B8D1B7
:105090000024042218AB019359465846169B0094ED
:1050A000029257461894FCF7C7FC002800F0EF80E6
:1050B00010F1540F00F0EB8010F11C0F7FF463AF80
:1050C0000024309B584600930B9902970194DDE928
:1050D0000923FFF7CBFD56E7A4B2CDE90147309B8A
:1050E0000B9D0093EB7D31468DF88F30EB69584670
:1050F0002593AB692493DDE90923FFF7B7FD002869
:10510000FFF64CAF0123EB751F9B2746EB611E9BFF
:10511000AB61F9E69C46002900F0A082DAE91A208A
:10512000DAF85430D26A6344B3FBF0F400FB143372
:10513000CAF85430D3008B424FF0000728BF0B460B
:10514000DAF86400CAF858303946CAF85C700AF0D8
:105150003BF9012335461C4698461E46CDE91E778D
:10516000CDE92077CDE92277CDE9247333463A465D
:105170002E464FF0000B1D466400DAF86C00DAE9A9
:1051800015C1A0EB0C0E7244B2FBF0FE00FB1E2218
:105190008A420ED2DAF86400D10802F00703425CBA
:1051A00008FA03F313434354259BDAF86C00DAE959
:1051B00015C10344A3EB0C03B3FBF0F200FB123365
:1051C0008B4209D2DAF86410DA08885C03F007032E
:1051D00008FA03F303438B5400234FF0FF3CCDE95F
:1051E0000233CDE900C324AA504663461EA9FDF749
:1051F00099FC024600283FD1BDF88C3013B30D92C4
:105200000F9408230D9C8A4A009342EA8422504658
:1052100012AB1EA9FCF772FE021E2BDB40F202212C
:10522000B1EB125F4FEA12537AD0B3F5007F00F072
:1052300018820D9BBDF88C2001330D939BB29A42CE
:10524000DFD80F9C249A501C00F0E980259B591C44
:1052500000F0E580BA4200F0F781AA4202D19F42F5
:1052600000F0F5810BF1010B5C4586D13546174600
:105270001E467BE7941CDCD01046D3460C9FDAF820
:105280006CC00023CBF860C0CBE9163314E7DBF821
:1052900068305B6A002B0ADD013343F00102189B82
:1052A000013B1344B3FBF2F302FB03F31893309B6F
:1052B0000422009300230193ADF86C308DF86E301A
:1052C0004FF0FF330B9C02971A93E37D19928DF8F0
:1052D0006F30E36958461D93A36916A91C93DDE955
:1052E0000923FFF7C3FC0028FFF6E6AE0123169A58
:1052F000E375179BA261E3612568DBF82000854216
:1053000000F0E2816168DBF82440A14200F0DC811A
:10531000A54200F0D981884200F0D6810127CFE66E
:10532000139C002C85D0DAF86830013CDB69083B1F
:105330009C4269D3B4FBF3F0013810930AF068F88B
:10534000109B821CA4EB8204B4FBF3F4DAE9151081
:1053500010965646129ADAF86C30BA462F46154621
:10536000324605EB030CACEB0101B1FBF3FC03FB94
:105370001C1383420AD2506ED90810F801C003F002
:10538000070308FA03F343EA0C034354002C41D00B
:10539000009514AB04F00105CDE90193C5F10203BA
:1053A0009B001046039300211192FCF7E5F9119A36
:1053B0008446D36E50BBD2E91510DDB9149E03EBC1
:1053C000060CACEB010CBCFBF3FE03FB1ECC8445CE
:1053D00017D2506E4FEADC010CF0070310F801C041
:1053E00008FA03F343EA0C034FF0010C4354516DE8
:1053F000D36E906D0DEB8C0C023C2C44DCF85050BD
:10540000AFE74FF0010CF5E700249FE793469C4679
:105410000C9F36E73D46109E5746924609E7DAF85C
:105420002880B8F1000F00F0068101240D9611E0EC
:10543000080000205917001000FC0F4003F49013DF
:10544000B3F5003F00F08180D8F80080B8F1000F7C
:1054500000F0F08098F80630012BF5D1D8F8303004
:1054600003F48812B2F5803FE8D1D8F82C50002D13
:10547000E4D0DAF86830013DDF69083FBD42C0F092
:10548000E180B5FBF7F0013809F0C2FF831CA5EB02
:105490008305B5FBF7F5DAE91516D8F82830DAF800
:1054A0006C2008F1400B9818411AB1FBF2F002FB96
:1054B0001011B14205F0010709D2DAF86460C8089A
:1054C00001F00702315C04FA02F20A433254002D63
:1054D00000F0AD80009314ABCDE90193C7F1020356
:1054E0009B005246039359465046FCF745F9DAF8BB
:1054F0006C201346002840F09680DAE91516E7B9CB
:10550000149B13445B1AB3FBF2F002FB10334FEA17
:10551000D30CB34203F0070304FA03F313D20120C0
:10552000DAF8642012F80C100B4302F80C30DAF8A9
:105530005410DAF86C20DAF858600DEB8000023D68
:10554000036D3D44AFE70120F7E7D8F83450002D54
:105550003FF47AAFDAF86830013DDF69083FBD42B9
:105560006ED3B5FBF7F0013809F052FF831CA5EBB1
:105570008305B5FBF7F5DAE91516D8F83830DAF80F
:105580006C2008F1400B9818411AB1FBF2F002FBB5
:105590001011B14205F0010709D2DAF86460C808B9
:1055A00001F00702315C04FA02F20A433254002D82
:1055B0003FF44AAF009314ABCDE90193C7F1020366
:1055C0009B005246039359465046FCF7D5F8DAF84B
:1055D0006C20134638BBDAE91516E7B9149B13445F
:1055E0005B1AB3FBF2F002FB10334FEAD30CB34269
:1055F00003F0070304FA03F313D20120DAF864205E
:1056000012F80C100B4302F80C30DAF85410DAF8E8
:105610006C20DAF858600DEB8000023D036D3D44CC
:10562000B1E70120F7E7D3469C460C9F29E6D8F85E
:10563000303003E70D9EDAF86010DAE916C3EAE4C9
:10564000002598E7002526E79D427FF40BAED34660
:105650006FF053000C9FDAF86CC012E6D3460C9F33
:105660002EE5DAF86C30129ADAF854001A44121A5D
:10567000B2FBF3F103FB1122DAF8581091420DD975
:105680000123DAF86400D10802F007029340425C7B
:1056900013434354DAF86C30DAE91501139A1A44CB
:1056A000121AB2FBF3F003FB102399427FF6C1AD4F
:1056B0000120DAF86410DA0803F0070300FA03F3B4
:1056C000885C03438B54B4E5CBE9082326E600BF8E
:1056D0002DE9F04F9DB0DDF898A005460E461F4617
:1056E0000A92BAF1000F00F0978040F201411B6866
:1056F000C3F30A528A424FEA135000F0F98140F294
:10570000FF418A4200F0008200F4E063B3F5C06F0D
:1057100007D17B6800F001001A68B2615B68F07520
:10572000F361BAF1010F77D0002240F20140BB686B
:10573000C3F30A5181424FEA135400F0DD8140F275
:10574000FF40814200F03E8204F4E063B3F5C06F95
:1057500007D1FB6804F001041968B1615B68F47556
:10576000F361BAF1020F52D040F201403B69C3F33A
:105770000A5181424FEA135400F0208240F2FF4068
:10578000814200F03F8204F4E063B3F5C06F00F0A3
:10579000FC81BAF1030F3AD040F20140BB69C3F378
:1057A0000A5181424FEA135400F0168240F2FF4042
:1057B000814200F0C08104F4E063B3F5C06F07D10B
:1057C000FB6904F001041968B1615B68F475F36169
:1057D000BAF1050F1BD140F201403B6AC3F30A51F5
:1057E00081424FEA135400F0178240F2FF40814299
:1057F00000F02F8204F4E063B3F5C06F07D17B6A39
:1058000004F001041968B1615B68F475F3611AB1C1
:10581000B38A002B00F08281B37D002B31D04FF092
:10582000FF33A86E19933368F2681693C16C33691D
:1058300017921A921893002900F0AD8000240839BD
:105840001B91AF492846069111A90791CDE9007A2D
:105850003146CDE90444CDE902440DF158081195D3
:10586000CDF84880FCF78AFC0346002839D013F1B4
:105870001C0F06D013F1540F03D018461DB0BDE81D
:10588000F08F4FF0FF3300962B61B38A3A460193B5
:10589000314653462846FFF729FBB0F100081BDBD1
:1058A0000A9BAC6AD3E900230E93ACB14FF0000918
:1058B0009346CDF83C800D96A3689B456DD0E26879
:1058C0000E99914269D0994267D0934565D024687A
:1058D000002CF1D1DDF83C80434618461DB0BDE8F0
:1058E000F08F2A6BEB6B696B53402A6CA86B4A40B4
:1058F000696C4140A86C4340D5E9130480EA020C6E
:105900006FF30903CDF850C084EA010C1393CDF86E
:1059100054C01BB9904201D18C4224D03146284654
:1059200013AAFCF7D5F903460028A6D1179B1B9AAA
:1059300010339342A5D8189B724C414663401BBA62
:1059400010932846042310AAFDF7D6FD034600282D
:105950008DD10C234146284613AAFDF7CDFD034601
:10596000002884D1189441462846FEF78BFF034651
:1059700000287FF47CAF189A05F13C043261179A35
:105980008046F26005F1300207CA84E80700C5E9E5
:1059900012332B6584E7C16950E704F1080CE04637
:1059A000DDF834E0A688BEE80F00ACE80F009EE802
:1059B0000F008CE80F000A9B984535D104F12003B5
:1059C000CDE90BB70993CDF898A024E0E37F33B37A
:1059D000276AD5F820E04FF0FF3377454146284647
:1059E000099A0CD0D4F824B0D5F824A0D34506D019
:1059F000574504D0DE451CBFA6EB0C06A6804FF031
:105A0000FF36CDE90299CDF804900096FDF78AF8AB
:105A1000002868D1A688B4F81CC0B445D6D9DDF8F2
:105A200098A0DDE90BB752E7BAF1000FC6D040F2FB
:105A3000FF413B68C3F30A528A4200F0D18040F232
:105A400001418A4200F08180BAF1010FB6D040F2E4
:105A5000FF41BB68C3F30A528A4200F0E18040F282
:105A600001418A4200F09A80BAF1020FA6D040F2BA
:105A7000FF413B69C3F30A528A4276D040F20141AA
:105A80008A4200F0FB80BAF1030F97D040F2FF4149
:105A9000BB69C3F30A528A4200F0DF8040F2014141
:105AA0008A4200F00C81BAF1050F87D140F2FF4124
:105AB0003B6AC3F30A528A4200F0F08040F201418F
:105AC0008A427FF47BAFC3F38923B3423FF676AFBC
:105AD000A3790136B6B2022BA6807FF46FAFA36A1A
